:100000000C9456000C9473000C9473000C947300C1
:100010000C9473000C9473000C9473000C94730094
:100020000C9473000C9493000C9473000C94730064
:100030000C9473000C9473000C9473000C94730074
:100040000C9473000C9473000C9473000C94730064
:100050000C9473000C9473000C9473000C94730054
:100060000C9473000C9473000C9473000C94730044
:100070000C9473000C9473000C9473000C94730034
:100080000C9473000C9439010C9449010C941A01DE
:100090000C9473000C9473000C9473000C9459012D
:1000A0000C9473000C9473000C94730011241FBE05
:1000B000CFEFDAE0DEBFCDBF11E0A0E0B1E0E2E1DA
:1000C000F5E102C005900D92A031B107D9F711E01A
:1000D000A0E1B1E001C01D92A533B107E1F70E9494
:1000E0003B080C94870A0C940000E82FFF27E7FDDB
:1000F000F095EE0FFF1FEE0FFF1FE15FFE4F108226
:100100001182128213820895E82FFF27E7FDF095F0
:10011000EE0FFF1FEE0FFF1FE15FFE4F6081718149
:100120008281938108951F920F920FB60F9211242E
:100130002F933F934F935F936F937F938F939F93EF
:10014000AF93BF93EF93FF93E0911F01F0912001D4
:10015000F0931C01E0931B0183B190E083709070D9
:100160009093200180931F0160E071E0EE0FFF1F6C
:10017000EE0FFF1FE80FF91FE60FF71F8081992789
:1001800087FD9095A92FB92F209117013091180163
:100190004091190150911A01820F931FA41FB51F9E
:1001A0008093170190931801A0931901B0931A013D
:1001B000209121013091220130931E0120931D01D5
:1001C00083B190E08C709070959587959595879503
:1001D0009093220180932101E7E1F1E0220F331F88
:1001E000220F331F280F391F620F731FDB018C9101
:1001F000992787FD9095A92FB92F5291429132915D
:100200002291820F931FA41FB51F80839183A28325
:10021000B383FF91EF91BF91AF919F918F917F91A8
:100220006F915F914F913F912F910F900FBE0F9063
:100230001F9018951F920F920FB60F9211248F9353
:100240008091120181115F9A809111018111479A69
:1002500080911001882339F02D9A1092BF001092DE
:10026000BF001092BE008F910F900FBE0F901F9095
:1002700018951F920F920FB60F9211248F938091B1
:10028000120181115F988F910F900FBE0F901F90F8
:1002900018951F920F920FB60F9211248F93809191
:1002A0001101811147988F910F900FBE0F901F90F1
:1002B00018951F920F920FB60F9211248F939F9350
:1002C00088B190E4892788B98091100181112D9817
:1002D0009F918F910F900FBE0F901F9018951F93B5
:1002E000162F813049F462E00E94C706112311F0F5
:1002F0005D9A0BC05D9809C081E061E00E94C7066D
:10030000112311F05E9A01C05E988BB11F91089580
:100310008C3009F447C08D3024F48A3009F056C07F
:1003200006C0883151F1893109F050C013C0CB01AA
:10033000BA0120E030E040EA51E40E94DA0820E00F
:1003400030E040EA50E40E9472089B01AC0183E077
:1003500062E025C0CB01BA0120E030E040EA51E480
:100360000E94DA0820E030E040EA50E40E9472087F
:100370009B01AC0183E063E012C0CB01BA0120E035
:1003800030E040EA51E40E94DA0820E030E040EA40
:1003900050E40E9472089B01AC0183E061E00E947E
:1003A000C7060895CB01BA0120E030E040EA50E4EE
:1003B0000E94240A20E030E04AEF53E40E947208D1
:1003C0000E9442097093BF006093D00008951F936C
:1003D000182F83E040E050E068E472E40E94B2022B
:1003E0001C3009F44DC01D3024F41A3009F067C0E8
:1003F00006C01831B1F1193109F061C019C081E0AE
:1004000080931201809171008460809371008091CB
:10041000710081608093710083E062E020E030E051
:1004200040EF50E40E94C7065F98579A789447C0FF
:1004300081E0809311018091710088608093710048
:100440008091710081608093710083E063E020E01F
:1004500030E040EF50E40E94C70647983F9A7894F6
:100460002EC08091900080688093900083E061E0CE
:1004700020E030E040EF50E40E94C7063E9A1FC0E3
:1004800081E0809310018091710081608093710000
:1004900084E040E050E06AEF73E40E94B20284E03E
:1004A00062E020E030E046E952E40E94C7062D9861
:1004B000259A8091720080628093720078941F91D7
:1004C0000895E1E6F0E080E88083108285BF85BF73
:1004D00081E040E050E46CE976E40E94B20281E001
:1004E00061E041E00E94290681E061E020E030E027
:1004F00040E050E00E94C706569A5E9881E062E0B4
:1005000041E00E94290681E062E020E030E040E026
:1005100050E00E94C706559A5E9883B190E08370C0
:1005200090709093200180931F0183B190E08C70B4
:1005300090709093220180932101E8E6F0E08081A1
:1005400081608083EBE6F0E0808181608083808140
:1005500082608083808184608083808188608083E2
:1005600078940895EF92FF920F931F937A018B0175
:10057000813009F4A7C082301CF4882341F063C3A2
:10058000833009F467C1843009F05DC32CC284B59F
:10059000816084BD84B5826084BD85B5886085BD79
:1005A00016BC409325015093260160932701709358
:1005B0002801CB01BA0120E038E146E757E40E9468
:1005C000200A18168CF460E074E284E79BE4A8012A
:1005D00097010E94DA080E94420967BD85B58160D3
:1005E00085BD85B58D7F32C0C801B70120E030E5FB
:1005F00045EF55E40E94200A882374F060E074E21D
:1006000084EF99E4A80197010E94DA080E94420948
:1006100067BD85B58E7F17C0C801B70120E030E007
:1006200045E754E40E94200A8823A4F060E074E2C5
:1006300084E798E4A80197010E94DA080E94420921
:1006400067BD85B5816085BD85B5826085BD85B591
:100650008B7F36C0C801B70120E030E045E753E4A6
:100660000E94200A882374F060E074E284E797E433
:10067000A80197010E94DA080E94420967BD85B56A
:100680008E7F18C0C801B70123E333E345E752E486
:100690000E94200A88230CF4D6C260E074E284E74A
:1006A00096E4A80197010E94DA080E94420967BDFA
:1006B00085B5816085BD85B58D7F85BD85B5846037
:1006C00085BD0FC180918100806180938100809100
:1006D0008100886080938100809180008260809397
:1006E000800080918000816080938000109285005E
:1006F000109284004093290150932A0160932B01AA
:1007000070932C01CB01BA0120E030E04AE753E4BA
:100710000E94200A1816BCF460E074E284E79BE4AF
:10072000A80197010E94DA080E944209709389008B
:100730006093880080918100816080938100809126
:1007400081008D7F3CC0C801B70120E030E048EF58
:1007500051E40E94200A882394F060E074E284EF60
:1007600099E4A80197010E94DA080E944209709357
:10077000890060938800809181008E7F1BC0C80132
:10078000B70120E030E040E850E40E94200A8823CE
:10079000E4F060E074E284E798E4A80197010E9425
:1007A000DA080E9442097093890060938800809162
:1007B00081008160809381008091810082608093BC
:1007C0008100809181008B7F42C0C801B70120E089
:1007D00030E040E85FE30E94200A882394F060E064
:1007E00074E284E797E4A80197010E94DA080E9466
:1007F00042097093890060938800809181008E7F08
:100800001CC0C801B7012FE832EC45E75EE30E9447
:10081000200A18160CF017C260E074E284E796E430
:10082000A80197010E94DA080E944209709389008A
:100830006093880080918100816080938100809125
:1008400081008D7F809381008091810084608093FE
:10085000810047C0809191008061809391008091D8
:1008600091008860809391008091900082608093D5
:100870009000809190008E7F809390001092950060
:100880001092940040932D0150932E0160932F01FC
:1008900070933001CB01BA0120E030E04AE753E425
:1008A0000E94200A1816FCF460E074E284E79BE4DE
:1008B000A80197010E94DA080E94420970939700EC
:1008C0006093960080919100816080939100809167
:1008D00091008D7F80939100809191008B7F809318
:1008E000910081E0B1C1C801B70120E030E048EFDC
:1008F00051E40E94200A882394F060E074E284EFBF
:1009000099E4A80197010E94DA080E9442097093B5
:10091000970060939600809191008E7F1BC0C80164
:10092000B70120E030E040E850E40E94200A88232C
:10093000BCF060E074E284E798E4A80197010E94AB
:10094000DA080E94420970939700609396008091A4
:100950009100816080939100809191008260BACF74
:10096000C801B70120E030E040E85FE30E94200AC0
:10097000882394F060E074E284E797E4A80197018B
:100980000E94DA080E9442097093970060939600D3
:10099000809191008E7F1CC0C801B7012FE832EC16
:1009A00045E75EE30E94200A18160CF04CC160E097
:1009B00074E284E796E4A80197010E94DA080E9495
:1009C0004209709397006093960080919100816036
:1009D00080939100809191008D7F80939100809110
:1009E000910084607CCF8091C3008D7F8093C30091
:1009F0008091C3008E7F8093C3001092BF0010923D
:100A0000BE004093310150933201609333017093E3
:100A10003401CB01BA0120E030E644E756E40E94FD
:100A2000200A1816E4F460E074E284E79BE4A8016D
:100A300097010E94DA080E9442097093BF006093F8
:100A4000D1008091C10081608093C1008091C1007C
:100A50008D7F8093C1008091C1008B7F29C0C80128
:100A6000B70120E030E04AEF54E40E94200A181653
:100A70002CF560E074E284EF99E4A80197010E94EC
:100A8000DA080E94420970932301109224017093A6
:100A9000BF006093D1008091C1008E7F8093C10020
:100AA0008091C1008D7F8093C1008091C1008460DE
:100AB0008093C1008091C100877FC2C0C801B70187
:100AC00020E030E844EF53E40E94200A1816B4F402
:100AD00060E074E284EF98E4A80197010E94DA08CC
:100AE0000E94420970932301109224017093BF0069
:100AF0006093D1008091C1008E7F1FC0C801B701F3
:100B000020E030E045E753E40E94200A1816DCF4A8
:100B100060E074E284E798E4A80197010E94DA0893
:100B20000E94420970932301109224017093BF0028
:100B30006093D1008091C10081608093C100809159
:100B4000C1008260B0CFC801B70120E030E048EFBB
:100B500051E40E94200A181604F560E074E284EF64
:100B600096E4A80197010E94DA080E944209709356
:100B70002301109224017093BF006093D1008091F3
:100B8000C1008E7F8093C1008091C10082608093FC
:100B9000C1008091C1008B7F4EC0C801B70120E029
:100BA00030E040E051E40E94200A1816DCF460E0D6
:100BB00074E284EF95E4A80197010E94DA080E948C
:100BC000420970932301109224017093BF00609337
:100BD000D1008091C1008E7F8093C1008091C100BF
:100BE0008D7F24C0C801B70120E030E040E85FE31A
:100BF0000E94200A18163CF560E074E284E794E451
:100C0000A80197010E94DA080E944209709323010B
:100C1000109224017093BF006093D1008091C100B5
:100C200081608093C1008091C10082608093C10087
:100C30008091C10084608093C1008091C100886070
:100C40008093C1004ECE80E01F910F91FF90EF90F6
:100C500008958130C9F082301CF4882339F095C0A2
:100C6000833091F1843009F090C041C0613009F0C7
:100C70008CC0442321F0509A84B5806203C0509800
:100C800084B58F7D84BD7FC0613021F0623009F072
:100C90007CC00CC0442329F0269A80918000806299
:100CA00010C02698809180008F7D0BC0442329F0CE
:100CB000279A80918000886004C0279880918000E6
:100CC000877F809380005FC0613009F05EC044235D
:100CD00039F03E9A8091900080688093900010C017
:100CE0003E98809190008F778093900013C062307F
:100CF000D9F0633089F1613009F047C0442351F0E5
:100D00003F9A8091C00080688093C0008091C000AD
:100D100082601FC03F988091C0008F778093C00091
:100D20008091C0008D7F15C0442351F0259A809199
:100D3000C00080618093C0008091C000816009C0C4
:100D400025988091C0008F7E8093C0008091C00064
:100D50008E7F8093C00017C0442351F0579A809132
:100D6000C20088608093C2008091C200816009C087
:100D700057988091C200877F8093C2008091C20003
:100D80008E7F8093C20081E0089580E00895AF9245
:100D9000BF92CF92DF92EF92FF920F931F93082F93
:100DA000162F59016A01CA01B90120E030E040E084
:100DB00050E00E94D60887FD54C1C601B50120E06D
:100DC00030E048EC52E40E94200A18160CF449C1A5
:100DD000013049F102301CF4002341F042C10330DC
:100DE00009F465C0043009F03CC1C6C0113009F0F7
:100DF00038C167B570E080E090E00E946E097B0129
:100E00008C01C601B50120E030E048EC52E40E94BC
:100E1000DA089B01AC01C801B7010E94240A0E94B4
:100E2000420968BDFAC0113021F0123009F019C131
:100E30001FC0609188007091890080E090E00E945E
:100E40006E097B018C01C601B50120E030E048EC61
:100E500052E40E94DA089B01AC01C801B7010E946C
:100E6000240A0E94420970938B0060938A0027C075
:100E7000609188007091890080E090E00E946E0986
:100E80007B018C01C601B50120E030E048EC52E462
:100E90000E94DA089B01AC01C801B7010E94240A34
:100EA0000E94420970938D0060938C0027C012301D
:100EB00029F1133009F441C0113009F0D2C060911A
:100EC00096007091970080E090E00E946E097B018F
:100ED0008C01C601B50120E030E048EC52E40E94EC
:100EE000DA089B01AC01C801B7010E94240A0E94E4
:100EF0004209709399006093980046C060919600F3
:100F00007091970080E090E00E946E097B018C0157
:100F1000C601B50120E030E048EC52E40E94DA0856
:100F20009B01AC01C801B7010E94240A0E9442093A
:100F300070939B0060939A0049C0609196007091F5
:100F4000970080E090E00E946E097B018C01C60151
:100F5000B50120E030E048EC52E40E94DA089B0141
:100F6000AC01C801B7010E94240A0E944209709393
:100F70009D0060939C0053C0123041F1133009F47E
:100F80004EC0113009F06DC02091D1007091230145
:100F900060E0620F711D80E090E00E946E097B01AD
:100FA0008C01C601B50120E030E048EC52E40E941B
:100FB000DA089B01AC01C801B7010E94240A0E9413
:100FC00042097093BF006093CF0027C02091D100E9
:100FD0007091230160E0620F711D80E090E00E943B
:100FE0006E097B018C0160E070E088EC92E4A60160
:100FF00095010E94710820E030E048EC52E40E9424
:10100000DA089B01AC01C801B7010E94240A0E94C2
:1010100042097093BF006093D00081E023C020910B
:10102000D1007091230160E0620F711D80E090E0BB
:101030000E946E097B018C01C601B50120E030E001
:1010400048EC52E40E94DA089B01AC01C801B701E8
:101050000E94240A0E9442097093BF006093D2004C
:10106000DCCF80E01F910F91FF90EF90DF90CF9049
:10107000BF90AF90089580E885BF85BF80936100E1
:10108000109261008AE00E94E70189E10E94E70175
:101090006E9A76986A9A729A89E140E050E068E424
:1010A00072EC0E9488018FEF93EDA0E38150904095
:1010B000A040E1F700C000006E9A76986A9A729A92
:1010C00089E140E050E066E173E40E9488018FEF1F
:1010D00093EDA0E381509040A040E1F700C00000F4
:1010E000D7CF5058BB27AA270ED070C161D130F09E
:1010F00066D120F031F49F3F11F41EF456C10EF476
:10110000E095E7FB4CC1E92F72D180F3BA17620773
:1011100073078407950718F071F49EF58AC10EF4E1
:10112000E0950B2EBA2FA02D0B01B90190010C01F7
:10113000CA01A0011124FF27591B99F0593F50F40F
:10114000503E68F11A16F040A22F232F342F442767
:10115000585FF3CF469537952795A795F04053955F
:10116000C9F77EF41F16BA0B620B730B840BBAF02F
:101170009150A1F0FF0FBB1F661F771F881FC2F79A
:101180000EC0BA0F621F731F841F48F487957795AE
:101190006795B795F7959E3F08F0B3CF9395880F65
:1011A00008F09927EE0F979587950895D4D008F405
:1011B00081E008950CD00AC102D140F0F9D030F09E
:1011C00021F45F3F19F0EBC0511134C1EEC00FD1D3
:1011D00098F39923C9F35523B1F3951B550BBB27FE
:1011E000AA2762177307840738F09F5F5F4F220FAB
:1011F000331F441FAA1FA9F333D00E2E3AF0E0E8A4
:1012000030D091505040E695001CCAF729D0FE2FEF
:1012100027D0660F771F881FBB1F26173707480781
:10122000AB07B0E809F0BB0B802DBF01FF27935837
:101230005F4F2AF09E3F510568F0B1C0FBC05F3F91
:10124000ECF3983EDCF3869577956795B795F7951F
:101250009F5FC9F7880F911D9695879597F9089517
:10126000E1E0660F771F881FBB1F621773078407B3
:10127000BA0720F0621B730B840BBA0BEE1F88F7C2
:10128000E0950895BCD088F09F5790F0B92F99272A
:10129000B751A0F0D1F0660F771F881F991F1AF081
:1012A000BA95C9F712C0B13081F0C3D0B1E008954A
:1012B000C0C0672F782F8827B85F39F0B93FCCF3CB
:1012C000869577956795B395D9F73EF49095809577
:1012D000709561957F4F8F4F9F4F0895E89409C097
:1012E00097FB3EF490958095709561957F4F8F4F59
:1012F0009F4F9923A9F0F92F96E9BB279395F6956F
:10130000879577956795B795F111F8CFFAF4BB0FEC
:1013100011F460FF1BC06F5F7F4F8F4F9F4F16C050
:10132000882311F096E911C0772321F09EE8872FDA
:10133000762F05C0662371F096E8862F70E060E096
:101340002AF09A95660F771F881FDAF7880F96950F
:10135000879597F90895990F0008550FAA0BE0E8B3
:10136000FEEF16161706E807F907C0F01216130667
:10137000E407F50798F0621B730B840B950B39F4A7
:101380000A2661F0232B242B252B21F408950A260D
:1013900009F4A140A6958FEF811D811D089597F94D
:1013A0009F6780E870E060E008959FEF80EC08950B
:1013B00000240A9416161706180609060895002434
:1013C0000A9412161306140605060895092E0394AE
:1013D000000C11F4882352F0BB0F40F4BF2B11F422
:1013E00060FF04C06F5F7F4F8F4F9F4F089557FD81
:1013F0009058440F551F59F05F3F71F04795880F83
:1014000097FB991F61F09F3F79F087950895121619
:1014100013061406551FF2CF4695F1DF08C01616C5
:1014200017061806991FF1CF869571056105089476
:101430000895E894BB2766277727CB0197F908958D
:101440008ADF08F48FEF08950BD0C0CFB1DF28F00A
:10145000B6DF18F0952309F0A2CFA7CF1124EACF69
:10146000C6DFA0F3959FD1F3950F50E0551F629F03
:10147000F001729FBB27F00DB11D639FAA27F00DED
:10148000B11DAA1F649F6627B00DA11D661F829F14
:101490002227B00DA11D621F739FB00DA11D621FF9
:1014A000839FA00D611D221F749F3327A00D611D16
:1014B000231F849F600D211D822F762F6A2F1124F8
:1014C0009F5750408AF0E1F088234AF0EE0FFF1F4B
:1014D000BB1F661F771F881F91505040A9F79E3F82
:1014E000510570F05CCFA6CF5F3FECF3983EDCF384
:1014F000869577956795B795F795E7959F5FC1F7BF
:10150000FE2B880F911D9695879597F90895F8946D
:02151000FFCF0B
:101512000001FF00FF000001010000FF00FF0100C9
:00000001FF
